:1000000021C0FECFFDCFFCCF45C0FACFF9CFF8CF4E
:10001000F7CFF6CFF5CFF4CFF3CFF2CFF1CFF0CFCC
:10002000EFCFEECFEDCFECCFEBCF08000400010017
:10003000010082002A0001008B002C0001008D00CD
:100040002E000000F894EE27ECBBE5BF8DE0A2E0A7
:10005000ED938A95E9F780E8A0E6ED938A95E9F7B4
:10006000E0E3F0E085919591009761F0A591B5915D
:1000700005901590BF01F00105900D920197E1F7F1
:10008000FB01F0CFE0E0E3BBE4BBE5BBEFEDEDBF90
:10009000C0E83AC00A921A92FA926A937A938A93C3
:1000A0009A93AA93BA93EA93FA93EFB7EA93C3D0D9
:1000B000E0918200E030D1F0E150E0938200E03046
:1000C000A9F4E8E0E0938200E0918000E03029F0BC
:1000D000E0918000E150E0938000E0918100E03009
:1000E00029F0E0918100E150E0938100E991EFBFB8
:1000F000F991E991B991A991999189917991699130
:10010000F9901990099018952597E0E8E6BDE0E090
:10011000E6BDEABBEBBBECE0E7BBE0E0E8BBE1BB84
:10012000E2BBE0BFE3BFE2BFE6BFECBFEFBDE9E08B
:10013000EEBDE0E0EDBDECBDE5BDE4BDE1E0EBBD55
:10014000E3EFEABDE0E0E9BDE8BDE0E4E9BFE0E0FF
:10015000E5BFEBBFEDB9EAB9E0E8E8B9E0E0E1B945
:100160007894EC2FEA93ADB71F9329D01F91E1301B
:10017000D1F4A881AB3061F4A981A63149F4AA81F8
:10018000A13231F4AB81AC3219F4AC81A73309F060
:1001900004C0E6E9E0938100C39A113021F4E6E956
:1001A000E0938000C29AE0918000E03009F4C298A8
:1001B000E0918100E03009F4C398D3CFFFCF3ED166
:1001C0000A2F3C81A0918900A130C1F410E01530C4
:1001D00050F4E12FE30F0E2EA3E8A10FEC91A02D18
:1001E000EC931F5FF4CFE0918A00A02FEC93E0E046
:1001F000E0938A00E0938900E1E01AC0E0E018C0D3
:100200001DD13A2F2C811FEFE32F3150E03079F0D0
:10021000A22F2F5FEC911E2700E0083038F41695CE
:1002200010FF02C0E1E31E270F5FF7CFEDCFE12FF4
:100230000AD1259608951A93A0919400A13099F4BB
:10024000E0E0DCD0E1E0E0938D00DBD0E0E0E093A3
:100250008C00E0938E00D9D0E0E0E0939000D9D0FC
:10026000E0E0E0939200A0918D00A13039F4839BEF
:1002700004C0E0E0E0938D0001C0BEC0E0918B00BF
:10028000E43079F4839B06C0E0918F00EF5FE09348
:100290008F0006C0E0918C00E03011F4BED0ACC0FD
:1002A00008C0E23031F4839B04C0B9D0EF5FE09323
:1002B0009000E0918E00EF5FE0938E00A0918E00A1
:1002C000A83059F5E0E0E0938E00E0918B00E43037
:1002D00069F4E0918C00E03029F4E1E0E0938C00D7
:1002E00094D08AC0E2E0E0938B0086C0E230A9F4AB
:1002F00099D0EA1718F4E1E0E0938B0093D0AE17A1
:1003000018F4E0E0E0938B008DD0EA1711F485D06B
:1003100073C07BD0E0E0E0939000E0918C00E1308E
:1003200001F5E0918B00E03011F0E130C9F47ED0AE
:10033000A1E08ED0E57511F410E001C011E0A091AC
:100340008B001A1711F475D002C067D055C059D070
:10035000A0919100A83021F45CD0E2E0E0938C0001
:100360004BC0E23009F048C0E0918B00E03019F05A
:10037000E13009F041C0A0918B00A13039F456D092
:10038000A1E066D0A0919300EA2B07C04FD0A1E076
:100390005FD0E095A0919300EA23E093930049D0C9
:1003A00030D0A0919100A83039F533D0A0918900C8
:1003B000A13019F4E1E0E0938A00A0919200A63008
:1003C00058F4E0919200ED57A0919300A083E09142
:1003D0009200EF5FE0939200A0919200A63061F44A
:1003E000E3E8EA93A5E00CDFA0918800EA1719F48E
:1003F000E1E0E093890011D019910895E093940011
:100400000895E4E0E0938B000895E0E0E0938F002E
:100410000895E0E0E09391000895E1E0EFCFE091EE
:1004200090000895FCDFA0918F000895E091910065
:100430000895FCDFEF5FE093910008953A932A93CB
:100440001A930A9308953B812A811981088108959E
:10045000EE230E2EEA2F19F0EE0F0A94E9F7089515
:00000001FF
