:0A00000010C0FECFFDCF3AC0FBCFC9
:10000A00FACFF9CFF8CFF7CFF6CFF5CFF4CFF3CFBA
:10001A00F2CFF1CF01000000F894EE27ECBBE5BF68
:10002A008DE0A2E0BB27ED938A95E9F780E091E0A5
:10003A00A0E6ED930197E9F7E0E2F0E0859195916A
:10004A00009761F0A591B59105901590BF01F00157
:10005A0005900D920197E1F7FB01F0CFE0E0E1BBDB
:10006A00E2BBE3BBEFE5EDBFE1E0EEBFC0EAD0E003
:10007A002CC00A921A92FA926A937A938A939A9362
:10008A00AA93BA93EA93FA93EFB7EA93B6D0E091B8
:10009A00A000E03029F0E091A000E150E093A00038
:1000AA0008D1E03021F005D1E150E093A100E991B7
:1000BA00EFBFF991E991B991A991999189917991B2
:1000CA006991F990199009901895259710E0E0E840
:1000DA00E6BDE0E0E6BDE5E0E7BBE2E0E8BBE0E084
:1000EA00EABDE3BFE2BFE9BDE8BDE7BDE5E8E0BFC1
:1000FA00E0E0ECBDEFBDEEBDEBBDE9EFEDBDE0E448
:10010A00E9BFE0E0EBBFE5BFEDB9E0E8E8B9E0E060
:10011A00E3B9E4BBE6B9EBE0E883E6E1E983E1E2CF
:10012A00EA83ECE2EB83E7E3EC837894B1991AC0B3
:10013A00E2E3E093A000B19914C0E091A000E0309E
:10014A0059F4103049F411E0DE012FD0E13021F4E6
:10015A00E6E9E093A100C09AACD0E03009F4C09877
:10016A00EACF10E0A6D0E03009F4C098DFCFFFCF85
:10017A00A9D03A2F4E815F811FEFE32F3150E03033
:10018A0081F0DA014F5F5F4FEC911E2700E00830E3
:10019A0038F4169510FF02C0E1E31E270F5FF7CF70
:1001AA00ECCFE12F96D0289608958ED09D01E0914C
:1001BA00A900E030F1F4E5E5E093A20010E0153083
:1001CA0070F4E12FF0E0ED55FF4F0F01D901EE2752
:1001DA00A10FBE1FEC91D001EC931F5FF0CF3A93B1
:1001EA002A93A5E0C5DFE093A800E1E0E093A90027
:1001FA0001C0E0E070D024960895A091A900A13032
:10020A0009F056C0E091AF00E03009F049C0E09132
:10021A00AE00E03029F4E1E0E093AE00C29A08951E
:10022A00E091AB00F0E0EE55FF4F1080E091AA009C
:10023A00A1E056D0E12179F4E091AD00E03029F453
:10024A00C298E1E0E093AD0005C0C29AE0E0E09315
:10025A00AD0032D00EC0E091AC00E03029F4C29A71
:10026A00E1E0E093AC0005C0C298E0E0E093AC00A6
:10027A0023D0A091AA00A83091F4E0E0E093AA006C
:10028A00E091AB00EF5FE093AB00A091AB00A73029
:10029A0031F4E0E0E093AB00E1E0E093AF0008C0A6
:1002AA00E0E0E093AF00E093AE00C298E093A900CB
:1002BA000895E091A1000895E091AA00EF5FE0930C
:1002CA00AA0008955A934A933A932A931A930A933F
:1002DA0008955D814C813B812A81198108810895A5
:1002EA00EE230E2EEA2F19F0EE0F0A94E9F708957D
:00000001FF
