:0E0000001BC0FECFFDCF44C0FBCFFACFF9CF1F
:10000E00F8CFF7CFF6CFF5CFF4CFF3CFF2CF52C074
:10001E00F0CFEFCFEECFEDCF0400010001006A016B
:10002E00260001006C0128000000F894EE27ECBBBE
:10003E00F1E0FBBFEBBFE5BF8DE0A2E0BB27ED9388
:10004E008A95E9F780E094E0A0E6ED930197E9F751
:10005E00EAE2F0E085919591009761F0A591B59156
:10006E0005901590BF01F00105900D920197E1F7F3
:10007E00FB01F0CFEFE5EDBFE4E0EEBFC0E6D1E06F
:10008E0035C0EA93EFB7EA93E0916001E03029F0D2
:10009E00E0916001E150E0936001E0916101E03098
:1000AE0029F0E0916101E150E0936101E991EFBF28
:1000BE00E99118950A921A92FA926A937A938A9310
:1000CE009A93AA93BA93EA93FA93EFB7EA93ABD0C3
:1000DE00E991EFBFF991E991B991A991999189911E
:1000EE0079916991F9901990099018952597E6E004
:1000FE00E7BBE0E0E8BBE4BBE5BBE1BBE2BBE3BFD3
:10010E00E2BFEFBDEEBDEDBDECBDE7BDE6BDEBBDA7
:10011E00EABDE9BDE8BDE2BDEBE0E5BDE0E0E4BD72
:10012E00ECE7E3BDE0E8E9BFE0E0E5BFEAB9E0E80F
:10013E00E8B9E0E6E7B9EDEEE6B9E0E0EDB9E6BF25
:10014E007894FE01FA93EA93ADB7BEB71F9329D008
:10015E001F91E130D1F4A881AB3061F4A981A631B1
:10016E0049F4AA81A13231F4AB81AC3219F4AC81DD
:10017E00A73309F004C0E6E9E0936001C29A11309A
:10018E0021F4E6E9E0936101C19AE0916101E0306A
:10019E0009F4C198E0916001E03009F4C298D1CF22
:1001AE00FFCF50D19D014E815F81A0916801A1309A
:1001BE00D9F410E0153068F4E12FF0E0E40FF51FEC
:1001CE00DF01E12FF0E0EE59FE4FE081EC931F5F6F
:1001DE00F1CFE0916901D901EC93E0E0E093690180
:1001EE00E0936801E1E01CC0E0E01AC02BD13A2F89
:1001FE004E815F811FEFE32F3150E03081F0DA0145
:10020E004F5F5F4FEC911E2700E0083038F41695D3
:10021E0010FF02C0E1E31E270F5FF7CFECCFE12FF7
:10022E0018D12896089512D105B1A0916C01A13074
:10023E0039F4063920F0E0E0E0936C0101C0D4C03F
:10024E00E0916A01E43089F4E0916B01E03019F439
:10025E00063908F4B8C0E02FCAD0F0E0EA0FFB1F51
:10026E00E0936E01F0936F010EC0E23061F4E02F67
:10027E00A0917001B0917101F0E0EA0FFB1FE093C5
:10028E007001F0937101E0916D01EF5FE0936D01EC
:10029E00A0916D01AA3041F5E0E0E0936D01E0918F
:1002AE006A01E43061F4E0916B01E03029F4E1E0A1
:1002BE00E0936B01A1D098C0E2E0A4D095C0E230EB
:1002CE0099F4A3D0EA17FB0710F4E1E09BD09DD080
:1002DE00AE17BF0710F4E0E095D097D0EA17FB07F2
:1002EE0009F471C089D096D0E0916B01E130E1F450
:1002FE00E0916A01E03011F0E130A9F491D0A1E073
:10030E00AFD0E57511F410E001C011E0A0916A01C3
:10031E001A1711F488D001C056C08AD021F48ED09D
:10032E00E2E0E0936B0160C0E23009F04AC0E09178
:10033E006A01E03019F0E13009F042C0A0916A0183
:10034E00A13039F46DD0A1E08BD0A0917401EA2BCD
:10035E0007C066D0A1E084D0E095A0917401EA2395
:10036E00E093740160D064D059F568D0A091680113
:10037E00A13019F4E1E0E0936901A0917301A63078
:10038E0068F4E0917301F0E0EE59FE4FA091740114
:10039E00A083E0917301EF5FE0937301A09173016D
:1003AE00A63071F4E2E6F1E0FA93EA93A5E01EDFDF
:1003BE00A0916701EA1719F4E1E0E093680103C028
:1003CE0013C0E33089F4E0E0E0936B01E4E01AD06F
:1003DE00E1E0E0936C01E0E0E0936D010DD01AD006
:1003EE002DD0E0E0E0937301099119910895A09149
:1003FE006E01B0916F010895E0E0E0936E01E0931D
:10040E006F010895E0936A010895E0917001F091F3
:10041E007101EDCFE0E0E0937001E093710108957A
:10042E00E09172010895FCDFEF5FE0937201089591
:10043E00E4E0E8DFA0917201A8300895E0E0E093D7
:10044E00720108955A934A933A932A931A930A93F0
:10045E0008955D814C813B812A811981088108951F
:10046E00EE230E2EEA2F19F0EE0F0A94E9F70895F7
:00000001FF
