:080000001DC044C046C0FCCF46
:1000080047C0FACFF9CFF8CFF7CFF6CFF5CFF4CF77
:10001800F3CFF2CFF1CFF0CFEFCFEECFEDCFECCFE4
:10002800EBCF01000300010082002A0001008E00CE
:100038002C000000F894EE27ECBBE5BF8DE0A2E0B1
:10004800ED938A95E9F780E8A0E6ED938A95E9F7BC
:10005800EEE2F0E085919591009761F0A591B59158
:1000680005901590BF01F00105900D920197E1F7F9
:10007800FB01F0CFE0E0E3BBE4BBE5BBEFEDEDBF98
:10008800C0E828C086D1A8D017C083D1B2D014C088
:1000980080D1CFD0E0918000E03029F0E09180005D
:1000A800E150E0938000E0918100E03029F0E09198
:1000B8008100E150E0938100E991EFBFF991E99166
:1000C800B991A9919991899179916991F99019902A
:1000D800099018952597E0E8E6BDE0E0E6BDEABBA3
:1000E800EBBBECE0E7BBE0E0E8BBE1BBE2BBE2E096
:1000F800E0BFE3E0E3BF5BD1EAE4E6BFE0E0ECBFEA
:10010800EFBDE9E0EEBD56D1E0E0E5BDE4BDEFE0CE
:10011800EBBDEFE9EABDE0E0E9BDE8BDE0E4E9BF39
:10012800EBE0E5BFE0ECEBBFEABFE0E0EDB9EAB930
:10013800E0E8E8B9E0E0E1B97894EC2FEA93ADB7EC
:100148001F9329D01F91E130D1F4A881AB3061F41D
:10015800A981A63149F4AA81A13231F4AB81AC322C
:1001680019F4AC81A73309F004C0E6E9E0938100F3
:10017800C39A113021F4E6E9E0938000C29AE09135
:100188008000E03009F4C298E0918100E03009F481
:10019800C398D3CFFFCF5AD10A2F3C81A0918C00AE
:1001A800A130C1F410E0153050F4E12FE30F0E2E0A
:1001B800A4E8A10FEC91A02DEC931F5FF4CFE09180
:1001C8008D00A02FEC93E0E0E0938D00E0938C008D
:1001D800E1E02CC0E0E02AC0E0918300E03021F4A7
:1001E800E9D0E8B7E064E8BFE0E0E0938200DFD060
:1001F8000895E1E0E0938200E1D0089527D13A2FF5
:100208002C811FEFE32F3150E03079F0A22F2F5FC0
:10021800EC911E2700E0083038F4169510FF02C054
:10022800E1E31E270F5FF7CFEDCFE12F14D125961D
:1002380008951A93E0918300E03061F4E091820020
:10024800E13009F4A4C0E03029F4E1E0C4D0C6D01C
:10025800AED09DC0E0918200E03009F4AFD0A7D0C5
:10026800E0918E00E33049F4E2E0BED0C0D0E093E4
:100278008F00F0939000B2D08AC0E230D1F4B7D0AA
:10028800E0939100F0939200A9D0B6D0EA17FB074B
:1002980010F4E1E0A9D0B0D0AE17BF0710F4E0E049
:1002A800A3D0AAD0EA17FB0719F4AFD0B8D06FC013
:1002B800ACD0E0918300E130F9F4E0918E00E030B9
:1002C80011F0E130C1F4B4D0A1E0CAD0E57511F461
:1002D80010E001C011E0A0918E001A1711F4ABD004
:1002E80003C093D09CD053C0ABD029F4E0E0E09396
:1002F8009300E2E070D04BC0E23009F048C0E091D2
:100308008E00E03019F0E13009F041C0A0918E0074
:10031800A13039F48DD0A1E0A3D0A0919500EA2BAB
:1003280007C086D0A1E09CD0E095A0919500EA2373
:10033800E093950080D084D051F5E0E0E0939300FD
:10034800A0918C00A13019F4E1E0E0938D00A09118
:100358009400A63058F4E0919400EC57A0919500D1
:10036800A083E0919400EF5FE0939400A091940043
:10037800A63069F4E4E8EA93A5E040DFA09189009B
:10038800EA1719F4E1E0E0938C003FD048D01991C6
:1003980008950A921A92FA926A937A938A939A9390
:1003A800AA93BA93EA93FA93EFB7EA930895E0E031
:1003B800E2BF0895E0E0EDBDECBD0895E2B7A0917D
:1003C8008A00B0918B00F0E0EA0FFB1FE0938A00EF
:1003D800F0938B000895E09383000895E0E0E093A4
:1003E8008A00E0938B000895E0938E000895E091D1
:1003F8008A00F0918B000895E0919100F0919200AD
:10040800A0918F00B09190000895E0E0E0938F00F4
:10041800E0939000E0939100E09392000895E0E06B
:10042800E0939300E0939400E3E0DEDFE0E0D3CFD5
:10043800E09193000895FCDFEF5FE0939300089547
:10044800E3E0D2DFA0919300A83008953A932A936D
:100458001A930A9308953B812A8119810881089586
:10046800EE230E2EEA2F19F0EE0F0A94E9F70895FD
:00000001FF
